:020000040800F2
:10000000805F00242104000817710008C162000805
:1000100015710008DD0C00082185000800000000B3
:100020000000000000000000000000006103000864
:10003000B913000800000000BD030008F1740008B7
:100040003B0400083B0400083B0400083B04000894
:100050003B0400083B0400083B0400083B04000884
:100060003B0400083B0400083B0400083B04000874
:100070006D0E0008790E0008C90E0008010F000877
:100080005D0F0008690F00083B0400083B040008EE
:100090003B0400083B0400083B0400083B04000844
:1000A0003B0400089D7600083B0400083B04000860
:1000B000D976000815770008517700083B0400083E
:1000C0003B0400083B0400083B0400083B04000814
:1000D0003B0400083B0400083B0400083B04000804
:1000E000BD1300083B040008000000003B040008AA
:1000F000DD7700083B0400083B040008750F00088A
:100100003B0400083B0400088D7700083B0400080E
:100110003B0400083B0400083B040008C9770008C2
:100120003B0400083B0400083B0400083B040008B3
:100130003B0400083B0400083B0400083B040008A3
:1001400000000000000000000000000000000000AF
:100150003B0400083B0400083B0400083B04000883
:100160003B0400083B0400083B0400083B04000873
:100170003B0400083B0400083B0400083B04000863
:100180003B0400083B0400083B0400083B04000853
:100190003B0400083B0400083B0400083B04000843
:1001A0003B0400083B0400083B0400083B04000833
:1001B0003B0400083B0400083B0400083B04000823
:1001C0003B0400083B0400083B0400083B04000813
:1001D0003B0400083B0400083B0400083B04000803
:1001E0003B0400083B0400083B0400083B040008F3
:1001F0003B0400083B0400083B0400083B040008E3
:100200003B0400083B0400083B0400083B040008D2
:10021000917600083B0400083B0400083B040008FA
:100220003B0400083B0400083B04000800000000F9
:100230003B0400083B040008000000003B040008E9
:100240003B0400083B0400083B0400083B04000892
:100250003B0400083B0400083B0400083B04000882
:100260003B0400083B0400083B0400083B04000872
:100270003B0400083B0400083B04000800000000A9
:100280003B0400083B0400083B0400080000000099
:10029000000000003B04000800F002F800F051F8F4
:1002A0000AA090E8000C82448344AAF10107DA45D1
:1002B00001D100F046F8AFF2090EBAE80F0013F0D2
:1002C000010F18BFFB1A43F00103184770AC000080
:1002D00090AC00000A4410F8014B14F00F0508BF61
:1002E00010F8015B240908BF10F8014B6D1E05D002
:1002F00010F8013B6D1E01F8013BF9D1641E03D0DB
:10030000641E01F8015BFBD19142E4D37047000009
:100310000023002400250026103A28BF78C1FBD80E
:10032000520728BF30C148BF0B607047692900F0F1
:100330002381002070471FB50AF002FD1FBD10B5D4
:1003400010BD00F047FB1146FFF7F5FF08F00AFF6C
:1003500000F065FB03B4FFF7F2FF03BC00F068FB9D
:100360002C4B19680868B0E8F04F80F30988BFF398
:100370006F8F4FF0000080F311887047000000007D
:1003800008480068006880F308884FF0000080F398
:10039000148862B661B6BFF34F8FBFF36F8F00DF73
:1003A00000BF00BF08ED00E0DFF80C00016841F479
:1003B00070010160704700BF88ED00E0EFF3098035
:1003C000BFF36F8F134B1A681EF0100F08BF20ED9C
:1003D000108A20E9F04F106009B44FF0500080F30C
:1003E0001188BFF34F8FBFF36F8F09F073FF4FF08A
:1003F000000080F3118809BC19680868B0E8F04F64
:100400001EF0100F08BFB0EC108A80F30988BFF30C
:100410006F8F704724020024EFF3058070470000BF
:100420000948804709480047FEE7FEE7FEE7FEE788
:10043000FEE7FEE7FEE7FEE7FEE7FEE704480549C4
:10044000054A064B70470000B57500089902000880
:1004500080590024805F0024805B0024805B00249E
:1004600053EA020C00F069802DE9F04B4FF00006D2
:10047000002B1FBFB3FA83F503FA05F424FA05F63F
:100480005E4012BF1643B2FA82F502FA05F4C5F1D6
:1004900020051EBF22FA05FC44EA0C04203556EA6A
:1004A000044C4FEA144418BF641C4FF000084FF08E
:1004B0000009904271EB030C39D3002919BFB1FA3E
:1004C00081F701FA07F6B0FA80F700FA07F6C7F1EC
:1004D00020071EBF20FA07FC46EA0C062037B6FBB1
:1004E000F4FCA7EB0507103F07F01F0BCBF120062C
:1004F0000CFA0BFB2CFA06F644BFB3460026202F5D
:10050000A4BF5E464FF0000B5BEA060C08BF4FF03D
:10051000010B19EB0B09ABFB027C48EB0608C01B77
:1005200006FB02CC0BFB03CC71EB0C01C1E70B46C5
:10053000024641464846BDE8F08B13B54FF0000037
:100540004FF00001AFF30080BDE81C407047000091
:100550000FB41CB5074B06AA7B446946009005986A
:1005600000F0C3F90020694600F0D2F91CBC5DF828
:1005700014FB0000B50300002DE9F04106460024FD
:1005800010687529314616A510D0AFF300800028F9
:1005900002DA404213A507E031688A0701D512A5A7
:1005A00002E0490704D511A5012401E0AFF3008062
:1005B00000210A2206F1240709E0B0FBF2FCB0FB9F
:1005C000F2F302FB1C00303078541846491C002816
:1005D000F3D123462A463046BDE8F04100F026B963
:1005E000000000002D0000002B0000002000000093
:1005F0002DE9F05F894604464FF0000ADFF824B188
:10060000FB44C0F820A02046E168884700287DD040
:10061000252806D0D4E901219047206A401C206299
:10062000F1E700255F462046E16888472028064616
:1006300007DB312E05D2B81910F8200C08B105439C
:10064000F1E7A80701D525F00405C4F81CA0002790
:10065000C4F818A02A2E09D0304608F0F1F938B3B2
:1006600004EB8708303EC8F8186019E059F8041BFD
:10067000204604EB87029161E1688847012F064616
:1006800018D1E069002820DA25F020051DE0D8F80F
:10069000180000EB800006EB40003038C8F8180066
:1006A0002046E1688847064608F0CAF90028EED1DE
:1006B000012F0AD02E2E08D12046E16888477F1CE2
:1006C0000646022F45F02005C4DBA069002803DAA6
:1006D000404245F00105A061E80701D025F0100572
:1006E000A6B1A6F14100192802D8203645F40065CC
:1006F0004A463146204625604D46FFF717FE60B159
:10070000012807D0ED1D25F0070000E007E000F10B
:10071000080978E705F1040975E730467AE7206AA9
:10072000BDE8F09F3CA80000032A40F2308010F0A2
:10073000030C00F0158011F8013BBCF1020F62447C
:1007400098BF11F801CB00F8013B38BF11F8013B0D
:10075000A2F1040298BF00F801CB38BF00F8013BBA
:1007600011F0030300F0D980083AC0F0088051F876
:10077000043B083A51F804CBA0E80810F5E7121D35
:100780005CBF51F8043B40F8043BAFF30080D20754
:1007900024BF11F8013B11F801CB48BF11F8012B20
:1007A00024BF00F8013B00F801CB48BF00F8012B43
:1007B000704702F0FF0343EA032242EA024200F0DC
:1007C000E0B84FF0000200B5134694469646203933
:1007D00022BFA0E80C50A0E80C50B1F12001BFF4FA
:1007E000F7AF090728BFA0E80C5048BF0CC05DF860
:1007F00004EB890028BF40F8042B08BF704748BFAE
:1008000020F8022B11F0804F18BF00F8012B704721
:1008100070477047704710B500F0D4F8006810BDFD
:1008200010B5044600F0CEF8046010BD2DE9F04785
:100830000D4699469246044600F124080168880650
:1008400004D5E06921F01001216000E00120A842F8
:1008500001DD471B00E00027A1697A1902EB0900BE
:10086000081AA0612078C00602D42046AFF30080A9
:10087000002608E0D4E901211AF806009047206A12
:10088000401C761C20624E45F4DB2078C0060AD559
:100890002046AFF3008006E0D4E9012130209047E4
:1008A000206A401C2062381EA7F10107F4DC07E033
:1008B000D4E9012118F805009047206A401C206205
:1008C000281EA5F10105F3DC2046AFF30080207857
:1008D000000602D50220BDE8F0870120FBE70000FA
:1008E00001694A1C02610878704700B58FB0CDE9F4
:1008F00001310021059105497944CDE903101146E4
:100900006846FFF775FE0FB000BD0000E5FFFFFF72
:100910000A6802F8010B0A60704710B5203AC0F06F
:100920000B80B1E81850203AA0E81850B1E81850F0
:10093000A0E81850BFF4F5AF5FEA027C24BFB1E82D
:100940001850A0E8185044BF18C918C0BDE810409E
:100950005FEA827C24BF51F8043B40F8043B08BFA7
:100960007047D20728BF31F8023B48BF11F8012B6E
:1009700028BF20F8023B48BF00F8012B70474FF01A
:1009800000020429C0F0128010F0030C3FF41BAFEA
:10099000CCF1040CBCF1020F18BF00F8012BA8BF6A
:1009A00020F8022BA1EB0C01FFF70DBF5FEAC17C21
:1009B00024BF00F8012B00F8012B48BF00F8012BE1
:1009C00070470000004870471C59002400487047D9
:1009D0001C5900247546FFF7F9FFAE46050069462D
:1009E000534620F00700854618B020B5FFF726FDD6
:1009F000BDE820404FF000064FF000074FF0000820
:100A00004FF0000B21F00701AC46ACE8C009ACE8A0
:100A1000C009ACE8C009ACE8C0098D46704710B504
:100A20000446AFF300802046BDE81040FFF792BCBB
:100A300001491820ABBEFEE7260002007047000007
:100A40001549002070B5154A0B6D5C1C0C650B2B0D
:100A50000EDA02F14A03486552F8205033F810408C
:100A60002C4442F82040401C0B28F5DB486570BD43
:100A70000A4D0B240346C1F854002C3D52F8206067
:100A8000B6FBF4F645F8206042F82030401C0B28F5
:100A9000F4DBC1E9143070BD90010024E8020024A9
:100AA00070B53A4905460068884202D0384A9042FB
:100AB00002D1D1F8080302E03648D0F8080310F458
:100AC000403F11D003F05AFE04466868B0F5803FFD
:100AD00006D0B0F5003F03D0B0F5403F27D101E08C
:100AE000000C18E0A40822E000214FF4002002F0DE
:100AF000AFFE044668688103890B18D181140C2964
:100B000015D2DFE801F0140606060606060B0D0FE7
:100B10001113800C4000B4FBF0F408E0240906E057
:100B2000640904E0A40902E0E40900E0240A02F0F8
:100B300031F941F20301884208D8174884422868F5
:100B4000816813D821F48071816070BD13496008F9
:100B5000884204D82868816821F44071F4E710497C
:100B6000884206D82868816821F4407141F4807178
:100B7000EAE70C4988422868816804D821F440716A
:100B800041F40071E0E741F44071DDE700200240EC
:100B90000021024000600258002D3101105E5F000C
:100BA00020BCBE0040787D0110B5846B616D11F0F2
:100BB000500F06D0616DC90625D5204600F0E2FE33
:100BC00010BD606D40F40070606520680168090721
:100BD00007D505F0CBFC90B12068C068800403D530
:100BE0000DE0C06880070AD1606D20F480706065F8
:100BF000606DC00403D4606D40F001006065204664
:100C000000F0BEFE10BDE16CC96CBDE810400847A5
:100C100010B5806B416D41F040014165816D41F03F
:100C20000401816500F0AEFE10BD10B5806B00F0D0
:100C3000A8FE10BD70B504460068816811F0010F70
:100C400040D18168204A11422DD18168D543294085
:100C5000491C816002F0A4F81C49064620681C4B20
:100C6000884201D0984201D11A4A00E01A4A92689B
:100C7000984202F01F0200D0014681421DD0E2B12D
:100C800020E0816811F0010F03D181682940491CDF
:100C9000816002F085F8801B02280ED92068006868
:100CA000C043C00709D0606D40F010006065A06DC2
:100CB00040F00100A065012070BD20680168C943B3
:100CC000C907DED1002070BD3F0000800020024037
:100CD000002102400023024000630258FEE7002288
:100CE000012110B500F08CF8BDE81040052008F097
:100CF0005FBB2DE9F04104464FF0140C28254FF05E
:100D0000080E0698062621600C2722716371A071D7
:100D10003220A572E671277284F809C084F80BE0CE
:100D200008F046FB00222046332100F069F800223B
:100D30002046332100F064F8052008F039FB00223A
:100D40002046322100F05CF8052008F031FB00223B
:100D50002046202100F054F8052008F029FBE17915
:100D60000022204600F04CF8217A0022204600F0B4
:100D700047F8617A0022204600F042F8A17A00226A
:100D8000204600F03DF800222046012100F038F80E
:100D90002046BDE8F0410022022100F031B830B415
:100DA000447900238C4201D8641EE1B284799442D4
:100DB00001D8641EE2B232B1012A06D0022A06D05E
:100DC000032A06D007E00B4605E0403102E014316B
:100DD00000E05431CBB230BC002243F0800100F07F
:100DE0000FB8012200F00CB870B50C46054603E0C0
:100DF000641C2846FFF7F5FF21780029F8D170BD63
:100E00007CB50B070646C07A01F0F0051C0E18B140
:100E100045F0080544F00804012A01D02AB108E091
:100E200045F0010544F0010403E025F0010524F03C
:100E3000010445F004008DF80400012008F0B8FA20
:100E400044F004008DF805508DF80600012008F0EC
:100E5000AFFA4FF47A708DF807400090042331798F
:100E600001AA306802F058F87CBD0000014800F08B
:100E7000ADBF0000940E00240F4B10B5587A0D281A
:100E800010D00E4A002111701078441C1954E0B2A1
:100E900010700A28F8D30D2002F066FA0D2002F037
:100EA00074FA04E01888064940BA40420880BDE858
:100EB0001040044800F08ABF1E0300240E020024E4
:100EC0000C020024B40C00240A4810B507F046FEBA
:100ED00050B9094801680A6822F001020A600068F6
:100EE000016841F001010160BDE81040034800F0D5
:100EF0006DBF000004020024A80B0024840F00240E
:100F0000114810B50178112910D0104A00235370F0
:100F100051784C1C4354E1B251700A29F8D30F2088
:100F200002F022FA0F2002F030FA07E0084AB0F887
:100F3000011011800749B0F803000880BDE8104097
:100F4000054800F043BF0000280300240E020024DF
:100F50003A0100243C0100242C0D0024014800F03B
:100F600035BF00000C0F0024014800F02FBF000027
:100F70001C0E0024014800F029BF0000A40D00242D
:100F8000294A016891423AD0274A1832914236D014
:100F9000254A3032914232D0234A483291422ED0F3
:100FA000214A603291422AD01F4A7832914226D09B
:100FB0001D4A9032914222D01B4AA83291421ED043
:100FC0001A4A91421BD0194A1832914217D0174A37
:100FD0003032914213D0154A483291420FD0134A11
:100FE000603291420BD0114A7832914207D00F4AB9
:100FF0009032914203D00D4AA832914211D1CAB227
:101000001823103AB2FBF3F26FF30901032A02F03E
:101010000703074AD25CC26500D9091D81650846ED
:10102000704721F0FF01F9E7100002401004024070
:1010300000AE000830B5224A012301689142CAB2CD
:101040001BD01F4C1434A14217D01D4C2834A14290
:1010500013D01B4C3C34A1420FD0194C5034A14248
:101060000BD0174C6434A14207D0154C7834A14200
:1010700003D0134C8C34A1420CD11421114C083AEA
:10108000B2FBF1F10F4A803201F01F0504EB810140
:10109000AB4010E00C4D1824103A0D44B2FBF4F1B3
:1010A000A82D00D80831094A01F01F0402EB810184
:1010B000064AA3408032603080E80E0030BD000058
:1010C0000854025800580258F0FBFDBF00080240C7
:1010D00010B50279531E072B2DD8174C0168A14279
:1010E0001BD0154C1434A14217D0134C2834A14204
:1010F00013D0114C3C34A1420FD00F4C5034A142BC
:101100000BD00D4C6434A14207D00B4C7834A14273
:1011100003D0094C8C34A14203D10849074C443117
:1011200002E00749064C443104EB8202C0E91B216E
:1011300001219940416710BD08540258FC580258DB
:10114000FC08024010B583694FF0C074826A014602
:10115000002053B1B3F5005F15D072B1012A0CD055
:10116000022A0AD0032A09D104E01AB1012A06D0C2
:10117000022A03D1C96AC90100D5012010BDC96A7C
:10118000A142FAD010BD002AF7D0012AF2D0022ADB
:10119000F3D0032AF3D010BD2DE9F04F804E804FDD
:1011A000DFF8FC911836DFF8F8A148370468856D40
:1011B0000AF1300ADFF8ECB14C45DFF8ECC1DFF89A
:1011C000ECE16DD0B4426BD0544569D0BC4267D0DD
:1011D000DFF8D081A8F11808444561D05C455FD0A4
:1011E00064455DD074455BD0DFF8C481444557D079
:1011F000DFF8BC8108F11808444551D0DFF8B08110
:1012000008F1300844454BD0DFF8A48108F14808C4
:10121000444545D0DFF8988108F1600844453FD047
:10122000DFF88C8108F17808444539D0DFF88081F7
:1012300008F19008444533D0DFF8748108F1A8081C
:1012400044452DD0DFF86C81444529D0DFF8648116
:1012500008F11408444523D0DFF8588108F1280824
:1012600044451DD0DFF84C8108F13C08444517D0B7
:10127000DFF8408108F15008444511D0DFF834818F
:1012800008F1640844450BD0DFF8288108F178089C
:10129000444505D0DFF81C8108F18C08444509D18C
:1012A000D0E91948C4F80480C46E1CB1D0E91C48C8
:1012B000C4F8048004684C452ED0B4422CD0544568
:1012C0002AD0BC4228D0374E183EB44224D05C45C8
:1012D00022D0644520D074451ED0354EB4421BD078
:1012E000334E1836B44217D0314E3036B44213D094
:1012F0002F4E4836B4420FD02D4E6036B4420BD03C
:101300002B4E7836B44207D0294E9036B44203D0E3
:10131000274EA836B44215D190F85C603F2406F001
:101320001F06B440AC600468256825F4802525605C
:101330002EE09A600068C160BDE8F08F9960006897
:10134000C260F9E71B4EB4421BD01A4E1436B442A9
:1013500017D0184E2836B44213D0164E3C36B4423D
:101360000FD0144E5036B4420BD0124E6436B442F5
:1013700007D0104E7836B44203D00E4E8C36B442AD
:10138000DAD190F85C60012406F01F06B4406C606E
:10139000046863608368402B0368CFD1C9E700000D
:1013A0001000024088000240A0000240B800024045
:1013B00010040240085402587047000070B54FF006
:1013C000B0464FF40065D6F888006C0000050DD5D6
:1013D000C6F888502146134801F0D2FC124A002872
:1013E000106801D0401C00E0401E1060D6F8880054
:1013F000C0040ED5C6F888404FF400510B4801F0E8
:10140000BFFC0B4A0028106801D0401C00E0401EC1
:101410001060284601F091FB2046BDE8704001F0C5
:101420008CBB000000000258680000240004025831
:101430006C00002472B6FEE72DE9F0470F4690F8E5
:1014400050109AB0044601294FF0000915D000262B
:10145000DFF8F880012084F8500015961696216870
:1014600041450ED13A4D0095284605F07BF882465D
:10147000206805F077F860B10EE002201AB0BDE8F0
:10148000F087606D84F8506040F0200060650120B6
:10149000F4E7BAF1000F09D0616D4FF0010941F096
:1014A00020006065484684F85060E7E720684146C0
:1014B000884201D0A84201D1264800E0264840F6E3
:1014C0001F72D7F800C0254BBCF1000F23D0D0F815
:1014D00008C0D7F804802CF4404C4CEA080CC0F843
:1014E00008C0D4F800C08C4501D0AC4507D189684C
:1014F000AB6801F0010103F00103194302E09968B0
:1015000001F001010029CDD1BD6839688368294304
:101510009343194317E0876827F44047876027689B
:101520008F4201D0AF4207D18968AB6801F0010159
:1015300003F00103194302E0996801F00101002959
:10154000B0D1816891438160ACE700000020024087
:10155000002102400023024000630258006002584C
:101560002DE9F84F0446EB4E0020DFF8ACB30090B5
:10157000002794F850000D46DFF8A0A3012808D0FA
:101580004FF0010984F85090206804F0E7FF18B18B
:1015900071E10220BDE8F88F286800280EDB216881
:1015A0000303CA6928D090FAA0F0B0FA80F000BF17
:1015B00000F01F0309FA03F00243CA61D5E90012E3
:1015C0004FF00C0C20681F23C1F384610CEA921CBD
:1015D00002F01F02604493409140026B9A430A4319
:1015E0000263206804F0BAFF8046206804F0B2FF6E
:1015F00058EA000003D08DE0C0F38460D8E72A6881
:10160000042320684FF0070CA96803EAD25318445A
:101610004369C2F304520CFA02FC914023EA0C0322
:101620000B434361BE490968B9EB117F06D12168BC
:101630006869C968C1F38201490008E02068C1688F
:10164000C906C1686869F5D501F0100149088840EC
:10165000296904292ED023682A6803EB810102F04E
:10166000F8420B6E024303F0004010430866697EA7
:1016700022682869012917D05FF0000102EB800081
:10168000026E22F000420A430266297E20682A691F
:1016900001290CD00021036902F01F02914023F4BC
:1016A000F0420A43026135E04FF00041E6E74FF4B3
:1016B0000061F0E720682978026E02F0F842B2EB90
:1016C000816F03D1016E21F0004101662068297805
:1016D000426E02F0F842B2EB816F03D1416E21F00D
:1016E0000041416620682978826E02F0F842B2EB30
:1016F000816F03D1816E21F00041816620682978D5
:10170000C26E02F0F842B2EB816F03D1C16E21F0DC
:101710000041C1662068816811F0010F72D150F854
:10172000C03F2A7BDFF8FCC1296802F018022CFABE
:1017300002FCC1F3130823EA08030CEA010C43EA94
:101740000C030360E96859456CD177482268DFF8DB
:10175000DCC1DFF8DCB18242DFF8D8E17648774BB4
:10176000DFF8DC8122D12968614524D0B1EB4C0C33
:1017700038D0A1F1496CBCF1080C35D0A1F1865CE0
:10178000BCF1100C32D0DFF8BCC1614528D07145E6
:101790003AD0814230D0994232D06B48814201D157
:1017A0006A4831E041452ED169482DE0B2422AD144
:1017B0002968614501D1012026E0A1F1066CBCF148
:1017C000040C0FD0A1F1496CBCF1080C0CD0A1F1B4
:1017D000865CBCF1100C09D0DFF868C1614507D107
:1017E0005C4811E058460FE05B480DE05B480BE0B9
:1017F000714509D0814201D1184605E09942D1D105
:10180000574801E03CE00020D16903031AD090FA68
:10181000A0F0B0FA80F000BF00F01F0309FA03F057
:101820000143D161D5F800C0BCF1000F28DA3E4B6E
:1018300020684C49DFF83091984201D0B04203D182
:101840000A4602E0800EE7E74A469268984202F0B4
:10185000E07201D0B04209D19D68D6F8088005F049
:10186000010508F0010845EA080503E0DAF8085028
:1018700005F001054DB1606D012740F02000606565
:10188000002084F85000384684E6384DAC451CD121
:1018900015021AD45045F3D1984202D0B04200D07C
:1018A00049468B6842F4000023F0E07202438A60EC
:1018B00030492F480968B1FBF0F04000801C00E07F
:1018C000401E00900028FBD1DAE72B4DAC450CD12F
:1018D000D5010AD45045D3D1984202D0B04200D0AD
:1018E00049468B6842F080700EE0244DAC45C7D16C
:1018F0005502C5D45045C3D1984202D0B04200D061
:1019000049468B6842F4800023F0E07202438A600B
:10191000B6E70000002102400000FF4700600258C7
:101920000010005CFFFF0F000020024002003004A6
:10193000400020190004002A0008302E00106032F8
:101940000000844B2000F0140000214300005247A7
:101950000000B84F0002B0258000501D000180211A
:10196000002090360023024000630258000084CB20
:10197000400D03001C020024000052C70000B8CF35
:101980007047704770470000F8B54FF0000604003C
:101990003546009602D0606D10B107E00120F8BD19
:1019A000204600F005F9A66584F85060206881683B
:1019B000C1F3407119B18168704A1140816020689B
:1019C0008168C1F3007181B981686D4A114041F0AD
:1019D000805181606C496B480968B1FBF0F0401C94
:1019E00000E0401E00900028FBD120688168C1F310
:1019F000007141B9616D012541F010016165A16D72
:101A000041F00101A16504F0A9FD616DC90600D492
:101A100020B1606D012540F0100093E0606D20F46E
:101A2000807040F0020060652068816811F0010F4D
:101A30001FD1564A564B904201D0984207D1916827
:101A40009E6801F0010106F00106314303E05149AF
:101A5000896801F0010161B9904201D0984201D139
:101A60004D4800E04D488268616822F47C120A43C8
:101A7000826001F08FF941F20301884202D9A06827
:101A800010280CD0617D227FA368206B490341EAB6
:101A9000024118430843217F01290CD010E0607DEA
:101AA000227F216B400340EA024241F010001043C4
:101AB00040F00C00EFE7218C394A02EB414108432A
:101AC000616A29B1A26A01F47871014342EA010016
:101AD0002168344BCA681A400243CA60206804F087
:101AE0003DFD0646206804F035FD30431DD12168D8
:101AF00044F20303267DE26AC86842EA86329843CC
:101B00001043C86094F8380001281ED0206801698D
:101B100021F0010101612068626B016921F07041CF
:101B2000114301612046FEF7BBFFE06801282068F1
:101B30001CD0016B21F00F010163606D20F00200E9
:101B400040F0010060652846F8BD2068A28F164F5E
:101B5000D4E9101C154E07EB0247A36C026941EA59
:101B60000C013B43324019431143D3E7A269016B97
:101B7000521E21F00F011143DEE70000C0FFFF5F9E
:101B8000C0FFFF7F400D03001C0200240020024024
:101B90000021024000600258002302400063025806
:101BA0000000FEFF03C0F0FF0100FFFF1EF800FC75
:101BB000F0B5B7B00646142130A8FEF702FEC021EA
:101BC0006846FEF7FEFD3849306888426AD1022037
:101BD00000224FF4002100910C231546CDE901208D
:101BE000C024CDE9033029922027CDE90604CDE9B0
:101BF00008720590684601F08FFF08B1FFF71AFCE4
:101C00002A48016841F020010160006800F02000CE
:101C1000359026480830016841F0040101600168F0
:101C200001F004013591016841F001010160016892
:101C300001F001013591016841F002010160006885
:101C400030A9032400F002003590322081E83100F1
:101C5000174800F07FFF30A9FC2081E831001548CB
:101C600000F078FF309430A91348CDE9314500F0F9
:101C700071FF124C092112484FF4807C021584E850
:101C80002300D700C4E90352C3142046C4E907C5A2
:101C90006562C4E9053700F00DFC08B1FFF7CAFB27
:101CA000F464A66337B0F0BD00200240D844025867
:101CB0000008025800000258000402583C0C00249E
:101CC000100002402DE9F047384E04460068914666
:101CD000DFF8DC808A46B04201D0404501D1354969
:101CE00000E03549896801F01F0504F037FC002841
:101CF00059D194F85000012855D001204FF0000729
:101D000084F8500025B1052D02D0092D00D003E044
:101D10002046FEF78FFF18B184F85070BDE8F087B9
:101D2000616D40F6016320689943404541F480713C
:101D3000616500D00646864200D01DB9606D20F472
:101D400080106065606DC00404D5A06D20F00600B1
:101D5000A06500E0A7651C20E16C184ACA63E26C2C
:101D600017491164E26C1749D1642168086084F84E
:101D700050702068416841F0100141602068E16ABC
:101D8000C26822F003020A43C26021684B46E06C3D
:101D90005246403100F070FD21680B4B8A681A40B2
:101DA000121D8A60BAE70220B8E700000020024056
:101DB000002102400023024000630258A90B0008E2
:101DC0002B0C0008110C0008C0FFFF7F2DE9FC5F01
:101DD0000446F74E0020DFF8D88300904FF41652E7
:101DE000F44808F11808A56DDFF8C493DFF8C0A324
:101DF000016809F1300920680AF1480AB1FBF2F1E3
:101E0000B04201912F68D5F800C0DFF8ACB335D0EF
:101E10004146884232D0484530D050452ED05845B2
:101E20002CD0E5491831884228D0E3493031884226
:101E300024D0E1494831884220D0E04988421DD071
:101E4000DE491831884219D0DC493031884215D03A
:101E5000DA494831884211D0DFF860E30EF1600EB4
:101E600070450BD0D54A7832904207D0D34B90338F
:101E7000984203D0D149A83188427DD194F85C20A2
:101E8000082102F01F0201FA02F23A424AD0B0429F
:101E900032D0404530D048452ED050452CD0584502
:101EA0002AD0C54A1832904226D0C34A30329042D6
:101EB00022D0C14A483290421ED0C04A90421BD024
:101EC000BE4A1832904217D0BC4A3032904213D0EA
:101ED000BA4A483290420FD0B84A603290420BD092
:101EE000B64A7832904207D0B44A9032904203D03A
:101EF000B24AA832904203D1026802F0040202E022
:101F0000026802F008026AB1026822F0040202606C
:101F100094F85C0000F01F008140A960606D40F003
:101F20000100606594F85C00012100F01F00814011
:101F3000394240D02068B04234D0404532D0484584
:101F400030D050452ED058452CD09B4A1832904264
:101F500028D0994A3032904224D0974A4832904251
:101F600020D0964A90421DD0944A1832904219D0FF
:101F7000924A3032904200E0AFE113D08F4A4832AB
:101F800090420FD08D4A603290420BD08B4A78320B
:101F9000904207D0894A9032904203D0874AA832B3
:101FA00090427DD1406910F0800F04D0A960606D2F
:101FB00040F00200606594F85C00042100F01F000E
:101FC000814039423ED02068B04232D0404530D0C6
:101FD00048452ED050452CD058452AD0764A183244
:101FE000904226D0744A3032904222D0724A48320F
:101FF00090421ED0714A90421BD0704A18329042D3
:1020000017D06E4A3032904213D06C4A4832904218
:102010000FD06A4A603290420BD0684A78329042C0
:1020200007D0664A9032904203D0644AA832904268
:102030004ED1006810F0020F04D0A960606D40F02E
:102040000400606594F85C00102100F01F008140DE
:10205000394258D02068B04234D0404532D048454B
:1020600030D050452ED058452CD0534A183290428B
:1020700028D0514A3032904224D04F4A48329042C0
:1020800020D04E4A90421DD04C4A1832904219D06E
:102090004A4A3032904215D0484A4832904200E0D5
:1020A00014E00FD0454A603290420BD0434A783258
:1020B000904207D0414A9032904203D03F4AA83222
:1020C000904207D1006800F0080006E0006872E75F
:1020D0000068B7E7006800F00400A0B1A9602068BC
:1020E0000168490304D50068000308D5A16C07E026
:1020F0000168C90503D4016821F008010160216C61
:1021000009B12046884794F85C00202100F01F00A8
:102110008140394279D02068B04232D0404530D039
:1021200048452ED050452CD058452AD0224A183246
:10213000904226D0204A3032904222D01E4A483265
:1021400090421ED01D4A90421BD01C4A1832904229
:1021500017D01A4A3032904213D0184A483290426F
:102160000FD0164A603290420BD0144A7832904217
:1021700007D0124A9032904203D0104AA8329042BF
:1021800003D1006800F0100002E0006800F00200D7
:10219000B0B3A96094F835000428206801680FD016
:1021A00049037ED5006800032BD4616C2AE000004F
:1021B000100002401C020024700002401004024083
:1021C00021F0160101602068416921F08001416120
:1021D000206C08B9A06C20B12068016821F00801CA
:1021E000016094F85C303F21012003F01F030022BE
:1021F0009940A96084F8350084F83420216D65E0A9
:1022000003E0E16B09B120468847606D00287DD06E
:10221000606DC00759D02068042184F83510B042A1
:102220002BD0404529D0484527D0504525D058458A
:1022300023D09D49884220D09B49183188421CD028
:1022400099493031884218D09849884215D0974929
:102250001831884211D09549303188420DD09349C8
:102260004831884209D091496031884205D08F4970
:102270007831884201D08D499031016821F0010107
:10228000016020680099019A491C0091914202D88E
:102290000168C907F6D10068C00710D003200FE01D
:1022A000FFE70168C905ACD403680121002223F0CF
:1022B0001003036084F8351084F83420A1E701206E
:1022C00084F83500002084F83400E16C00291DD02A
:1022D00002B02046BDE8F05F0847754988421DD02E
:1022E00073491431884219D071492831884215D078
:1022F0006F493C31884211D06D49503188420DD030
:102300006B496431884209D0694900E084E0783142
:10231000884203D066498C3188427DD194F85C8034
:102320000427016808F01F0807FA08F717EA0C0FDE
:10233000009746D04F0744D500980F04686003D536
:10234000C8033CD4A16CC1E7880638D42068B042E9
:102350002DD055496039884229D0484527D050456D
:1023600025D0584523D05049884220D04E491831B5
:1023700088421CD04C493031884218D04B498842A1
:1023800015D04A491831884211D048493031884225
:102390000DD046494831884209D0704507D0904257
:1023A00005D0984203D04149A831884203D1016841
:1023B00021F0080102E0016821F004010160216CB4
:1023C00084E7022707FA08F717EA0C0F00974ED0A8
:1023D0008F074CD500980F04686003D5C80344D418
:1023E000616C73E7880640D42068B0422FD02E4934
:1023F000603988422BD0484529D0504527D05845D0
:1024000025D02949884222D02749183188421ED038
:1024100025493031884200E044E018D02349884201
:1024200015D022491831884211D0204930318842D4
:102430000DD01E494831884209D0704507D09042DE
:1024400005D0984203D01949A831884203D10168C8
:1024500021F0140102E0016821F00A01016001216C
:1024600084F83510002084F83400E16B2EE7082250
:1024700002FA08F212EA0C0F14D0090712D501680B
:1024800021F00E01016094F85C100120002201F09F
:102490001F0100FA01F16960606584F8350084F875
:1024A000342012E7BDE8FC9F88000240100402407F
:1024B000085402582DE9F05F044600F071FC002C2E
:1024C00007467DD0E34E022120684FF00308DFF875
:1024D00088934FF00005DFF884A3B042DFF880B3A3
:1024E00034D0DC4A1832904230D048452ED0504586
:1024F0002CD058452AD0DA4A1832904226D0D84AF1
:102500003032904222D0D64A483290421ED0D54A2C
:1025100090421BD0D34A1832904217D0D14A303261
:10252000904213D0CF4A483290420FD0CD4A603209
:1025300090420BD0CB4A7832904207D0C94A9032B1
:10254000904203D0C74AA83290427DD184F835101A
:10255000B04284F834502ED0BE49183188422AD077
:10256000484528D0504526D0584524D0BC4918317C
:10257000884220D0BA49303188421CD0B84948310D
:10258000884218D0B749884215D0B64918318842D8
:1025900011D0B449303188420DD0B2494831884217
:1025A00009D0B0496031884205D0AE4978318842BF
:1025B00001D0AC499031016821F00101016008E0CF
:1025C00027E100BF00F0ECFBC01B052801D920214A
:1025D0001CE120680068C007F4D104F108002168FC
:1025E000D4E9053C8E4685C809681043D4E907281C
:1025F0001F43636A38439C4F40EA0C001043394044
:1026000040EA0800042B40EA010003D1D4E90B1290
:1026100011430843954909686FF30F01B1F1005F59
:102620000FD36168A1F12902052A08D9163A032AB5
:1026300005D9083A012A02D94F39032901D840F4B3
:102640008010CEF8000000E023E02068676A40694F
:10265000042F20F0070047EA00070DD1D4E90A0152
:10266000074349B12046FEF76DFD28B14020606563
:10267000012184F83510CCE0206847612046FEF740
:102680007FFC94F85C203F2102F01F0291408160A2
:1026900054E0774A90421BD0754B1433984217D0C0
:1026A000734B2833984213D0714B3C3398420FD070
:1026B0006F4B503398420BD06D4B6433984207D028
:1026C0006B4B7833984203D0694B8C3398427DD161
:1026D00084F8351084F83450664B0168A26801EA2A
:1026E000030E402A73D0802A72D00022D4E90378E6
:1026F000D4E9053142EAD70242EAD8085C4AD4E973
:10270000077C48EAD30848EAD10141EAD70152429E
:1027100041EA1C11142341EA0E01016020681044B3
:10272000B0FBF3F08000E0652046FEF729FC94F84A
:102730005C20012102F01F02914041602068B042FC
:1027400057D044491831884253D0484551D050455C
:102750004FD058454DD042491831884249D0404960
:102760003031884245D03E494831884241D03D49C8
:1027700088423ED03B49183188423AD039493031FD
:10278000884236D037494831884232D035496031A5
:1027900088422ED03349783188422AD0314990314D
:1027A000884226D02F49A831884222D03049884219
:1027B0001FD02F49143188421BD02D49283188421F
:1027C00017D02B493C31884213D002E01DE017E0BE
:1027D00018E02749503188420BD02549643188429E
:1027E00007D023497831884203D021498C3188426F
:1027F00029D12046FEF71EFCA06880280CD00CE0F2
:10280000102273E74FF4804270E74021616584F83D
:1028100035800120BDE8F09F6560216E2079086059
:10282000D4E9190141606068401E072808D8204695
:10283000FEF74EFCE06E0560D4E91C01416002E049
:10284000E566256765670120656584F83500002029
:10285000E0E7000010000240400002405800024043
:1028600070000240100402403F8010FE0010005C27
:10287000085402580F00FEFF2DE9F84F04008C4663
:102880004FF00000009014D094F83400012812D0CA
:1028900094F835500120002184F83400012D0CD02B
:1028A000C00260650120009084F834100098BDE8F3
:1028B000F88F0120FBE70220F9E78C4D0226206803
:1028C00084F83560A8428A4D61658A4E8A4FDFF8E8
:1028D0002C82DFF82C92DFF82CA2DFF82CB226D065
:1028E000A84224D0B04222D0B84220D040451ED0C9
:1028F00048451CD050451AD0584518D083498842C5
:1029000015D082491831884211D08049303188422F
:102910000DD07E494831884209D07C4960318842D7
:1029200005D07A497831884201D0784990310168E0
:1029300021F00101016061462046FEF72DFC6B4944
:10294000206888422CD0A8422AD0B04228D0B84271
:1029500026D0404524D0484522D0504520D0584567
:102960001ED06A4A90421BD0684A1832904217D053
:10297000664A3032904213D0644A483290420FD0B7
:10298000624A603290420BD0604A7832904207D05F
:102990005E4A9032904203D05C4AA83290420CD1F9
:1029A000026822F01E0242F016020260206C88B11A
:1029B0002068026842F008020BE0026822F00E0272
:1029C00042F00A020260206C20B12068026842F0E6
:1029D00004020260206888424BD0A84249D0B0422D
:1029E00047D0B84245D0404543D0484541D05045F6
:1029F0003FD058453DD0454A90423AD0434A1832DC
:102A0000904236D0414A3032904232D03F4A48322A
:102A100090422ED03D4A603290422AD03B4A7832D2
:102A2000904226D0394A9032904222D0374AA8327A
:102A300090421ED0364A90421BD0354A1432904202
:102A400017D0334A2832904213D0314A3C32904258
:102A50000FD02F4A503290420BD02D4A6432904210
:102A600007D02B4A7832904203D0294A8C329042C8
:102A70000DD1206E0268D20303D5026842F4807241
:102A80000260E06E18B1026842F480720260206851
:102A9000884226D0A84224D0B04222D0B84220D0CA
:102AA00040451ED048451CD050451AD0584518D036
:102AB0001649884215D015491831884211D013495A
:102AC000303188420DD011494831884209D00F4930
:102AD0006031884205D00D497831884201D00B49D8
:102AE0009031016841F001010160DFE61000024011
:102AF000280002404000024058000240700002409E
:102B000088000240A0000240B800024010040240C9
:102B10000854025870B5044600F042F90546601C9E
:102B200002D004480078044400F03AF9401BA04267
:102B3000FAD370BD1002002470474FF0B04110B5B9
:102B4000D1F88820024203D0C1F88800FFF7F4FFD3
:102B500010BD00002DE9F84F03247D4D00234FF0F8
:102B600001094FF0B04B4FF00F0AE9E009FA03F703
:102B70003A4076D00E7906F00306012E01D0022EDF
:102B800018D1D0F808C04FEA430ECE6804FA0EF808
:102B90002CEA080C06FA0EF646EA0C068660D0F817
:102BA00004C00E792CEA070CC6F300169E4046EAD4
:102BB0000C0646600E79F643B6070BD0C6684FEA9E
:102BC00043088F6804FA08FC26EA0C0607FA08F79F
:102BD0003743C7600E7906F00306022E12D1DE08D5
:102BE0000F694FEA437C00EB8606B646366A4FEA29
:102BF000DC6C0AFA0CF807FA0CF726EA08063743E9
:102C0000CEF820700F7906684FEA430807F00307F3
:102C100004FA08FC07FA08F726EA0C0637430760AF
:102C20004E6816F4403F1CD04A4E376847F0020702
:102C3000376036689F0706F00206009623F0030609
:102C400006F1B046B6463F0FD6F80864DFF80881B3
:102C50000AFA07FC404526EA0C0603D14FF0000CA7
:102C600041E06CE0DFF8F4C0604502D14FF0010CA8
:102C700039E0DFF8ECC0604502D14FF0020C32E0E1
:102C8000DFF8E0C0604502D14FF0030C2BE0DFF825
:102C9000D8C0604502D14FF0040C24E0DFF8CCC06E
:102CA000604502D14FF0050C1DE0DFF8C4C060455F
:102CB00002D14FF0060C16E0DFF8B8C0604502D133
:102CC0004FF0070C0FE0DFF8B0C0604502D14FF0C5
:102CD000080C08E0DFF8A4C0604502D14FF0090CF1
:102CE00001E04FF00A0C0CFA07FC4CEA060CCEF897
:102CF00008C44F68DBF80060FF0226EA020600D530
:102D000016435F46CBF80060D1F804C0DBF80460DE
:102D10005FEA8C2C26EA020600D516437E606E68B8
:102D20004F6826EA0206BF0300D516436E602E6880
:102D30004F6826EA0206FF0300D516432E605B1C8F
:102D40000A6832FA03F67FF411AFBDE8F88F00008D
:102D500080000058F4440258000002580004025851
:102D600000080258000C02580010025800140258C3
:102D700000180258001C0258002002580024025873
:102D80000069084000D0012070470AB18161704796
:102D90000904FBE701480068000C70470010005C64
:102DA00001488068704700001002002430B590F898
:102DB0004120202A24D190F84020012A20D001234C
:102DC00080F84030242280F841202023002402682B
:102DD000156825F0010515600268156825F4805511
:102DE0001560026815680D43156001680A6842F0B5
:102DF00001020A6080F8413080F84040002030BD78
:102E0000022030BD30B590F84120202A22D190F820
:102E10004020012A1ED0012380F84030242280F86F
:102E20004120202400250268136823F00103136069
:102E30000268136823F4706343EA0121116001689A
:102E40000A6842F001020A6080F8414080F8405070
:102E5000002030BD022030BD70B5040004D094F8CD
:102E60004100002510B106E0012070BD204684F825
:102E7000405000F0F7F8242084F8410020680168F1
:102E800021F001010160D4E9001020F070600861B8
:102E90002068816821F400418160E0682168012890
:102EA000A06830D040F404408860E06802282068C0
:102EB00041682BD021F40061416020682021154A2F
:102EC0004368134343602068C26822F40042C26032
:102ED00054F8106B0DCC104340EA0320F06054F816
:102EE0001C3CD4E900021043186054F81C0D026821
:102EF00042F001020260656484F84110256384F8A1
:102F00004250002070BD40F40040CDE741F4006124
:102F1000D2E70000008000022DE9FF4F81B0044697
:102F200090F8410099469046DDF838B020287BD1D2
:102F300094F84000012877D0012084F84000FFF782
:102F40002FFF0122064619230090D103204603F0EB
:102F500069FA002853D1414921220025C4F8248070
:102F6000102084F84120FF2784F842006564A4F80B
:102F70002A90608D4FF080794FF0007A6563FF28CA
:102F800002D94B46278505E0608D53462085000415
:102F9000000C10D0226898F800009062606A401C13
:102FA0006062608D401E6085208D401E2085401C23
:102FB0000091C2B201E0002200910299204603F084
:102FC00019FA13E003F098FAC8B9606A216800782A
:102FD0008862606A401C6062608D401E6085208D42
:102FE000401E80B22085618D01B160B1608D324696
:102FF000594600282046E5D103F052FAE0B10120FD
:1030000005B0BDE8F08F00225B4680212046009687
:1030100003F008FA0028F2D1608DFF2805D9278532
:103020003A464B460095C8E716E0608D534620852A
:10303000009594F82820C0E721682020084AC8613C
:1030400021684B6813404B6084F8410084F842507B
:10305000002084F84050D3E70220D1E70020008010
:1030600000E800FE2DE9F04186B0044614216846D0
:10307000FDF7A7FB23680027454C1225DFF818C190
:1030800001264349042243480834634516D10B689E
:1030900043F002030B600968049201F002010591FC
:1030A000C0218DE8E2006946FFF754FD206840F436
:1030B00000102060206800F400101AE0DFF8DCC087
:1030C00063451AD10B6843F002030B600968049250
:1030D00001F0020105914FF440618DE8E20069467C
:1030E000FFF738FD206840F480002060206800F47D
:1030F0008000059006B0BDE8F081DFF8A4C063450C
:1031000028D1086840F004000860086800F0040056
:103110000590086840F00100086008684FF40071ED
:10312000904600F0010005908DE8E2011D486946D7
:10313000FFF710FD4FF480711B488DE8E2016946EE
:10314000FFF708FD206840F400002060206800F4CC
:103150000000CEE7154A9342CCD10A6842F0020241
:103160000A6009680622049201F0020105914FF4F9
:1031700040718DE8E2006946FFF7ECFC044814302A
:10318000016841F080010160006800F08000B0E754
:10319000E044025800040258005400400058004027
:1031A000005C00400008025800000258001C005853
:1031B000024881680278114481607047100200243F
:1031C000032010B500F00EF901F01EFB0F4A104964
:1031D00014681368C4F3032203F00F038A5CC95C0C
:1031E00002F01F0201F01F01D0400A4A20FA01F14B
:1031F0001160094908600F2000F010F808B10120A3
:1032000010BD00F09FF8002010BD000018440258C7
:1032100030AE0008200200241C02002410B5102843
:1032200004468AB02CD200220146372000F0BAF8BA
:10323000372000F0AAF8174804601748016841F0E9
:1032400020010160006809A900F02000089068468C
:1032500001F066FA0598B0B101F0B2FA40000F49EA
:1032600000220F4CB0FBF1F10E4840F2E73304604E
:10327000C0E90332491EC0E9011201F079FF28B10B
:1032800001200AB010BD01F09BFAE8E7054801F003
:10329000CBFFF6E714020024E844025840420F0036
:1032A00000140040FC0F0024154BF0B5083B427899
:1032B00013491A600B680A1F23F001030B6043686F
:1032C0001360057BC67A827A437B2D07847B45EAAF
:1032D0000665C77B90F809C0067A90F800E045EAD9
:1032E000C24040EA834040EA444040EA074040EAA6
:1032F0000C2040EA460040EA0E000860F0BD0000E5
:10330000A0ED00E0BFF35F8F044800210368034A8B
:1033100023F48033036070321160704724ED00E0C5
:10332000074A40F00100064970321060086840F416
:1033300080300860BFF34F8FBFF36F8F704700007E
:1033400024ED00E0074882B0016841F0020101600D
:10335000006800220F2100F002000090901E02B0D1
:1033600000F020B8F444025800280DDB410900F0B9
:103370001F028900012001F1E0219040C1F8800185
:10338000BFF34F8FBFF36F8F7047002809DB4109F0
:1033900000F01F028900012001F1E0219040C1F8F6
:1033A000000170470E4BF0B41B680D46C3F30223B7
:1033B000C3F10706042E00D90426191D072901D2DE
:1033C000002300E0DB1E012404FA06F19C40491EA4
:1033D0002940641E994014402143F0BC05F0B9B85F
:1033E0000CED00E0064900F0070210B54FF6FF04AF
:1033F0000868044B204040EA02201843086010BDD2
:103400000CED00E00000FA05134970B50A68D243DC
:10341000520705D5096801F00701814213D118E070
:103420000A6822F0070202430A60FFF7B9FC0A4D5E
:103430004FF47A760446083D07E000BFFFF7B0FC82
:10344000001BB04201D9012070BD2868C043800430
:10345000F4D4002070BD00000C48025810B501F0F3
:103460008DF905490968054AC1F30211515C01F063
:103470001F01C84010BD00002044025830AE0008B3
:103480004A4930B5494C0B1D0A680C3409681D685F
:10349000246802F0030305F00102C1F30511C4F32F
:1034A000CC04002914FB02F200EE102AF8EE400AC8
:1034B00076D0414A9FED3E1ADFED3E1AB7EE000A84
:1034C00023B1012B5AD0022B18D15CE0374C283C99
:1034D00023689B0612D5394B246801EE901A1168B7
:1034E000C4F3C104F8EE612AE34001EE903AC1F35F
:1034F0000801F8EE611A81EEA22A07E002EE101A26
:103500001168F8EE422A81EEA22A45E001EE901AF7
:103510001168F8EE611A40EE811A71EE800A62EECF
:10352000200AC1F3462101EE101AB8EE411A31EE1D
:10353000001AC0EE811ABCEEE11A80ED001A116883
:10354000C1F3064101EE101AB8EE411A31EE001A2D
:10355000C0EE811ABCEEE11A80ED011A1168C1F3C8
:10356000066101EE101AB8EE411A31EE000A80EE43
:10357000801ABCEEC10A80ED020A30BD01EE901A3D
:10358000DFED0F2A03E001EE901ADFED0E2A11683D
:10359000F8EE611A82EEA12AC1F30801B6E7FFE74F
:1035A000002101604160816030BD00002844025864
:1035B000000000390024744C304402580090D003BD
:1035C0000024744A20BCBE4B494930B5484C0B1D01
:1035D0000A68143409681D68246802F00303C5F3FF
:1035E0000012C1F30531C4F3CC04002914FB02F22C
:1035F00000EE102AF8EE400A75D03F4A9FED3D1AC2
:10360000B7EE000A6BB1DFED3D1A012B01D0022BA2
:1036100064D002EE101A1168F8EE422A81EEA22A56
:1036200021E0334C283C23689B0612D5344B246898
:1036300001EE901A1168C4F3C104F8EE612AE34068
:1036400001EE903AC1F30801F8EE611A81EEA22A68
:103650000BE001EE901ADFED2B2A00BFF8EE611AA5
:10366000116882EEA12AC1F3080101EE901A1168D7
:10367000F8EE611A40EE811A71EE800A62EE200ABD
:10368000C1F3462101EE101AB8EE411A31EE001ACC
:10369000C0EE811ABCEEE11A80ED001A1168C1F388
:1036A000064101EE101AB8EE411A31EE001AC0EED2
:1036B000811ABCEEE11A80ED011A1168C1F30661AE
:1036C00001EE101AB8EE411A31EE000A80EE801AAF
:1036D000BCEEC10A80ED020A30BD04E001EE901A92
:1036E000DFED092ABAE70021016041608160F3E75C
:1036F0002844025800000039384402580024744A13
:103700000090D0030024744C20BCBE4B494930B516
:10371000484C0B1D0A681C3409681D68246802F0B7
:103720000303C5F30022C1F30551C4F3CC040029FF
:1037300014FB02F200EE102AF8EE400A75D03F4A60
:103740009FED3D1AB7EE000A6BB1DFED3D1A012B7C
:1037500001D0022B64D002EE101A1168F8EE422A52
:1037600081EEA22A21E0334C283C23689B0612D527
:10377000344B246801EE901A1168C4F3C104F8EECA
:10378000612AE34001EE903AC1F30801F8EE611AB4
:1037900081EEA22A0BE001EE901ADFED2B2A00BF8A
:1037A000F8EE611A116882EEA12AC1F3080101EE58
:1037B000901A1168F8EE611A40EE811A71EE800AD3
:1037C00062EE200AC1F3462101EE101AB8EE411A4A
:1037D00031EE001AC0EE811ABCEEE11A80ED001A3B
:1037E0001168C1F3064101EE101AB8EE411A31EE2C
:1037F000001AC0EE811ABCEEE11A80ED011A1168C0
:10380000C1F3066101EE101AB8EE411A31EE000A5A
:1038100080EE801ABCEEC10A80ED020A30BD04E0E1
:1038200001EE901ADFED092ABAE70021016041603C
:103830008160F3E7284402580000003940440258F0
:103840000024744A0090D0030024744C20BCBE4B6A
:103850002DE9F04FAC4A0546DFF8A8A280F480704D
:10386000DFF8AC9289B01311AA4C0843A748AAF11B
:1038700004064FF0805C4FF000582CD085F40077A0
:103880000F4357D0DFF87CB285F480670F430BF10C
:10389000080B61D085F400670F4374D085F480571E
:1038A0000F436ED085F400570F434FF480394FF427
:1038B000003E67D085F400270F4371D085F4803730
:1038C0000F436ED085F480460E436BD085F40042E2
:1038D0000A4368D02AE0DAF8001001F00701052950
:1038E00024D2DFE801F075BC7D25B10006A8FFF702
:1038F000C7FD079809B0BDE8F08F6846FFF764FE82
:103900000098F7E703A8FFF701FF0398F2E72068A4
:10391000C0F3C10022FA00F0ECE72268D20571D5AD
:1039200061456FD11846E5E74145E3D00020E1E766
:103930004846DFE7DAF8001001F4E07180294FD043
:1039400004DC002944D04029F0D188E0C029EFD020
:10395000B1F5807FEAD177E0DBF8001001F4600177
:10396000B1F5800F3CD004DC91B3B1F5001FDDD17F
:1039700075E0B1F5C00FDBD0B1F5000FD6D163E033
:1039800001E018E030E0DBF8001001F0E061B1F197
:10399000007F25D008DCD9B1B1F1807FC6D15EE0CF
:1039A00049E06CE079E09CE0B1F1407FC0D0B1F13A
:1039B000806FBBD148E0DAF8001001F4E041B1F5C6
:1039C000005F0DD005DC19B1B1F5805FAED146E0E6
:1039D00094E0B1F5405FABD0B1F5804FA6D133E0B4
:1039E00020688000A2D58DE7DAF8001001F4E0210C
:1039F000B1F5403F6CD006DC61B149457AD07145E4
:103A000094D157E037E0B1F5802F65D0B1F5A02F04
:103A10008CD10CE000F0D4FE6CE76846FFF7D4FDD3
:103A2000019867E703A8FFF771FE049862E7216831
:103A30008903F1D47AE7DBF8001011F440310ED09D
:103A4000494510D07145F5D13168256801F04051E4
:103A50006D077FF562AF00297FF45FAF57E72068FD
:103A60000001E7D549E720688000E3D503A8FFF708
:103A70004DFE05983EE722689203DBD554E7306897
:103A800010F480303AD04845D4D120680001D1D517
:103A90006846FFF799FD02982CE7DBF8001001F06B
:103AA000E041B1F1405F13D008DC71B1614521D034
:103AB0004145BFD120688000B4D437E7B1F1804FD1
:103AC0000AD0B1F1A04FB2D030E7FFF7C7FC11E741
:103AD00020684007AED51AE72068C005AAD521E7BF
:103AE00008E0DAF8001011F04051A0D0614505D08F
:103AF00041459FD1206800018FD417E720688001DD
:103B000098D5F3E6504402580090D00340787D01E8
:103B10000080BB00004402582DE9FE4F0546DFF847
:103B2000E48350F8081B0024F64FC943019005F1C7
:103B30002800264608F12408009008011DD4A86E2C
:103B400050B1B0F5801F0CD0B0F5001F0ED0B0F50D
:103B5000401F1ED001240FE0386840F40030386068
:103B600017E00198022103F0FBFA03E0009802211C
:103B700003F086FB04000CD026462888C043C0050D
:103B800023D4A86D05281ED2DFE800F00C11161B07
:103B90001B00AA6ED8F8001021F440111143C8F898
:103BA0000010EAE7386840F40030386009E0019816
:103BB000002103F0D5FA03E00098002103F060FB38
:103BC000044674B100E0012426462888C0438005DD
:103BD00028D4E86D80281ED00CDC90B140280ED18E
:103BE00014E0AA6DD8F8001021F007011143C8F8BD
:103BF0000010EAE7C02813D0B0F5807F10D0012470
:103C00000FE0386840F40030386009E00198002186
:103C100003F0A6FA03E00098002103F031FB04460C
:103C20009CB126462888DFF8DC92C04309F12C09B4
:103C300040052CD4D5F8A800B0F5800F20D00DDCBD
:103C4000A0B1B0F5001F0FD115E0EA6DD8F8001053
:103C500021F4E0711143C8F80010E3E7B0F5C00F9C
:103C600013D0B0F5000F10D001240FE0386840F4F5
:103C70000030386009E00198002103F071FA03E098
:103C80000098002103F0FCFA04467CB126462888FF
:103C9000C04300052DD4D5F8AC00B0F1007F21D091
:103CA0000EDCA8B1B0F1807F10D116E0D5F8A820C5
:103CB000D9F8001021F460011143C9F80010E6E7BB
:103CC000B0F1407F13D0B0F1806F10D001240FE02D
:103CD000386840F40030386009E00198002103F0B2
:103CE0003FFA03E00098002103F0CAFA044674B1D9
:103CF00026462868C04380011FD4E86CD8B110283C
:103D00000FD0202812D0302815D0012414E0D5F887
:103D1000AC20D9F8001021F0E0611143C9F800107F
:103D2000E7E7386840F40030386004E00198022189
:103D300003F016FA044674B126462888C043C0042E
:103D40002BD4286EB0F5005F20D00DDCA0B1B0F50B
:103D5000805F0FD115E06B48EA6C2030016821F0DC
:103D6000300111430160E8E7B0F5405F13D0B0F5D2
:103D7000804F10D001240FE0386840F400303860E4
:103D800009E00198002103F0EBF903E0009800211D
:103D900003F076FA04468CB126462888C043800496
:103DA00029D4686EB0F5403F23D010DC08B3B0F5DD
:103DB000803F14D0B0F5003F0FD115E02A6ED8F83F
:103DC000001021F4E0411143C8F80010E5E7B0F518
:103DD000802F0ED0B0F5A02F0BD001240AE001985F
:103DE000012103F0BDF903E00098012103F048FA36
:103DF000044694B126462888C04340042AD4D5F806
:103E0000B000B0F1405F23D010DC08B3B0F1805FA8
:103E100014D0B0F1005F0FD115E06A6ED8F8001031
:103E200021F4E0211143C8F80010E4E7B0F1804F1D
:103E30000ED0B0F1A04F0BD001240AE0019801216F
:103E400003F08EF903E00098012103F019FA04460B
:103E500074B126462888C04300041FD4286FD8B107
:103E6000B0F1805F0ED0B0F1005F10D0012414E0FB
:103E7000D5F8B020D9F8001021F0E0411143C9F87D
:103E80000010E7E7386840F40030386004E001983B
:103E9000012103F065F9044674B126462868C04341
:103EA000C0011ED4A86CD0B101280ED0022811D0B8
:103EB000032814D0012413E02A6FD8F8001021F051
:103EC00040511143C8F80010E8E7386840F400306A
:103ED000386004E00198022103F042F90446ACB1D5
:103EE00026462868DFF81CB0C043ABF11C0B40022B
:103EF00052D40548016841F480710160FEF750FF1B
:103F0000824611E02C44025800480258FA48AA6C34
:103F1000016821F0030111430160E2E7FEF740FF71
:103F2000A0EB0A00642835D8F4480068C005F5D530
:103F30008CBBDFF8C4A3B5F8B4100AF1240ADAF890
:103F4000000001F4407100F44070884211D0DAF8AA
:103F50000010DAF8002021F4407142F48032CAF8EF
:103F60000020DAF8002022F48032CAF80020CAF8D3
:103F70000010D5F8B400B0F5807F1AD1FEF710FF1D
:103F8000029012E0FEF70CFF0299411A41F28830CC
:103F900081420AD9032426462878DFF85CA3C0436F
:103FA0000AF1080AC00721D03CE0DAF800008007D7
:103FB000E8D5D5F8B410C1F30120032858460DD038
:103FC000016821F47C510160B5F8B420DAF80010E2
:103FD000C2F30B021143CAF80010DDE7C84A0368B8
:103FE00002EA111223F47C511143ECE7E86F182820
:103FF00016D005DCA0B1082808D0102804D10AE0AA
:1040000020280DD028280BD001240AE00198012196
:1040100003F0A6F803E00098012103F031F904460B
:1040200064B126462878C04380071ED4A86F0628AE
:1040300019D2DFE800F0160C11161616EA6FDAF83E
:10404000001021F038011143CAF80010EAE7019886
:10405000012103F085F803E00098012103F010F935
:1040600004467CB100E0012426462878C04340077E
:104070001FD4D5F89400062819D2DFE800F0160CFA
:1040800011161616AA6FDAF8001021F00701114375
:10409000CAF80010E9E70198012103F061F803E094
:1040A0000098012103F0ECF80446A4B100E00124DB
:1040B00026462878C04380062BD4D5F89000B0F16E
:1040C000405F24D011DC10B3B0F1805F15D0B0F1A7
:1040D000005F10D116E0D5F89420D9F8001021F037
:1040E00007011143C9F80010E3E7B0F1804F0ED08B
:1040F000B0F1A04F0BD001240AE00198002103F099
:104100002FF803E00098022103F0BAF8044694B1B6
:1041100026462878C04340062BD4D5F89C00B0F53D
:10412000406F24D011DC10B3B0F5806F15D0B0F51E
:10413000006F10D116E0D5F89020DAF8001021F0C9
:10414000E0411143CAF80010E3E7B0F5805F0ED0FC
:10415000B0F5A05F0BD001240AE00198002102F025
:10416000FFFF03E00098022103F08AF8044694B1AF
:1041700026462878C04300062BD4D5F8A000B0F519
:10418000C04F24D011DC10B3B0F5005F15D0B0F5EE
:10419000804F10D116E0D5F89C20D9F8001021F4FA
:1041A000E0511143C9F80010E3E7B0F5004F0ED01D
:1041B000B0F5204F0BD001240AE00198002102F055
:1041C000CFFF03E00098022103F05AF8044654B1EF
:1041D00026462878C04300071ED4D5F88400B0F5E1
:1041E000805F0AD00FE0D5F8A020D9F8001021F4A4
:1041F00060411143C9F80010EBE70098022103F079
:104200003FF800B10126D5F88420DAF8001021F437
:1042100040511143CAF800102878C043C00613D497
:10422000D5F89800B0F5807F05D10098022103F001
:1042300027F800B10126D5F89820D9F8001021F40C
:1042400040711143C9F800102868C043000316D418
:10425000D5F8A40038B1B0F5803F09D0B0F5003FE3
:104260000BD001240AE00198002102F079FF03E05D
:104270000098022103F004F804468CB12646286811
:10428000C043400322D4D5F88800B0F5801F11D078
:10429000B0F5001F13D0B0F5401F15D0012414E075
:1042A000D5F8A420D9F8001021F440311143C9F801
:1042B0000010E4E7386840F40030386004E000980B
:1042C000012102F0DDFF04465CB126462868C043A8
:1042D000C00323D4286DA8B1B0F5803F17D00124C6
:1042E0001BE0D5F88820DAF8001021F440111143C2
:1042F000CAF80010EAE700004C440258004802588F
:10430000CFFFFF00386840F40030386004E00198C7
:10431000022102F025FF0446E4B126462868C04386
:10432000800005D40098022102F0AAFF00B1012606
:104330002868C04380031BD4D5F88000B0B1B0F525
:10434000807F0FD0B0F5007F10D0B0F5407F0DD04A
:1043500001240CE05A482A6D016821F48031114390
:104360000160DBE7386840F400303860ECB3264683
:104370002868C043C00207D46A6FD8F8001021F043
:1043800000411143C8F800102868C043C00008D499
:10439000D5F8B820DBF8001021F480411143CBF8A8
:1043A00000102868C043800207D4EA6ED8F80010D5
:1043B00021F080711143C8F800102868C043400004
:1043C0000CD4DBF8001021F40041CBF80010DBF82E
:1043D0000010D5F8BC201143CBF800102868C0436A
:1043E00008D437486A6D016800E018E021F04051B8
:1043F000114301602868C043000208D4D5F88C201E
:10440000DAF8001021F440011143CAF800102879AD
:104410000024C04300F0010020430AD00FE0D5F88B
:104420008020DAF8001021F440711143CAF800101E
:104430009EE70198002102F093FE00B1064628791C
:10444000C04300F00200204305D10198012102F091
:1044500087FE00B106462879C04300F004002043DF
:1044600005D10198022102F07BFE00B106462879B1
:10447000C04300F00800204305D10098002102F05D
:10448000FFFE00B106462879C04300F0100020432B
:1044900005D10098012102F0F3FE00B1064628790B
:1044A000C04300F02000044304D10098022102F030
:1044B000E7FE00B916B10120BDE8FE8F0020FBE742
:1044C0004C4402582DE9F05F04000F467ED0DFF81F
:1044D0003882D8F8000000F00F00B8420CD2D8F8AB
:1044E000001021F00F013943C8F80010D8F800007F
:1044F00000F00F00B84269D12078844D40070AD5FA
:104500002069296801F07001884204D9296821F0E6
:1045100070010143296020787C4E361D00070AD5C2
:104520006069316801F07001884204D9316821F076
:104530007001014331602078C0060AD5A069316856
:1045400001F4E061884204D9316821F4E06101435B
:1045500031602078DFF8B4B180060BF1080B0CD580
:10456000E1695846DBF8002002F07002914204D95C
:10457000026822F070020A430260207880070AD5A0
:10458000E068296801F00F01884204D9296821F008
:104590000F01014329602078C0073ED05B49A26823
:1045A0002868183920F47060104328606068022879
:1045B00018D0032819D00968012819D04907002903
:1045C0004ADADFF848A1AAF1080A00E044E0DAF884
:1045D000002022F007020243CAF80020FEF7E0FBA9
:1045E000814612E009688903E9E709688901E6E77D
:1045F000C905E4E7FEF7D4FBA0EB090141F28830DE
:10460000814202D90320BDE8F09F6168DAF800001A
:1046100000F03800B0EBC10FECD1207880070AD54C
:10462000E068296801F00F01884204D2296821F06E
:104630000F0101432960D8F80010404601F00F0136
:10464000B9420BD9016821F00F01394301600068BC
:1046500000F00F00B84201D00120D4E720784007D5
:104660000AD52069296801F07001884204D22968BE
:1046700021F0700101432960207800070AD56069A4
:10468000316801F07001884204D2316821F0700174
:10469000014331602078C0060AD5A069316801F471
:1046A000E061884204D2316821F4E0610143316065
:1046B000207880060CD5E1695846DBF8002002F02E
:1046C0007002914204D2026822F070020A43026032
:1046D00000F09AF80E492A682B68C2F3032203F00F
:1046E0000F038A5CC95C02F01F0201F01F01D04079
:1046F000084A20FA01F1116007490860074800687C
:10470000BDE8F05FFEF78ABD002000521844025851
:1047100030AE0008200200241C02002414020024F1
:1047200070B5144C3F220260124A24680832131DEF
:10473000114D04F00704446016681C1D06F47066F1
:104740008660166806F00F06C660126802F07002F6
:1047500002611A6802F0700242611A6802F4E062B3
:104760008261226802F07002C261286800F00F00C6
:10477000086070BD104402580020005230B500F0AF
:1047800043F80B4A0B490C4B15681468C5F3032218
:1047900004F00F048A5C095D02F01F0201F01F01A2
:1047A000D040064A20FA01F119601060084630BD79
:1047B0001844025830AE0008200200241C020024D5
:1047C00000B5FFF7DBFF05490968054AC1F302118F
:1047D000515C01F01F01C84000BD00001C4402589C
:1047E00030AE000800B5FFF7C9FF05490968054A62
:1047F000C1F30221515C01F01F01C84000BD00005F
:104800001C44025830AE0008454970B54548096857
:10481000434B103B11F0380208D00111082A03D095
:10482000102A0BD0182A0BD0084670BD19688906CB
:10483000FBD51968C1F3C101C84070BD3A4870BDCD
:104840003749374D18310C1D24350A680968266828
:104850002D6802F0030406F00102C1F30511C5F34F
:10486000CC0515FB02F200EE102AB8EE400AE9B3BF
:104870002F4ADFED2E0AB7EE001A6CB1DFED2D1ACC
:10488000012C01D0022C43D002EE101A1068F8EE71
:10489000422A81EEA22A1EE01C68A40611D51B68DC
:1048A00001EE901A1168C3F3C103F8EE612AD840F3
:1048B00001EE900AC1F30800F8EE611A81EEA22A17
:1048C0000BE001EE901ADFED1C2A00BFF8EE611A32
:1048D000106882EEA12AC0F3080001EE900AF8EEFB
:1048E000611A40EE201A31EE810A00E015E022EE56
:1048F000000A1068C0F34620401C00EE900AF8EE53
:10490000600A80EE201ABCEEC10A10EE100A70BDDB
:1049100001EE901ADFED092AD8E7002070BD0000F3
:10492000104402580090D00340787D010000003907
:10493000304402580024744A0024744C20BCBE4BFE
:104940002DE9F05F04007DD0FF4F2078FE4D183731
:10495000DFF8F493103DC00748D0D9F8000039685B
:1049600000F03800102815D0182803D101F00300FA
:1049700002280FD06068B0F5803F12D010B1B0F5BA
:10498000A02F18D0286820F480302860286820F4F0
:10499000802009E02868800328D560680028D2D0EC
:1049A00024E0286840F480302860606888B1FEF711
:1049B000F7F9064609E0286840F480202860F0E70F
:1049C000FEF7EEF9801B64286FD828688003F7D5BE
:1049D0000CE0FEF7E5F9064605E000BFFEF7E0F95A
:1049E000801B6428F0D828688003F7D4207841F22F
:1049F0000308D54E0C3E800769D5D9F80000396808
:104A000010F038000ED0182801D188070AD0E068CD
:104A100090B3296821F0190101432960FEF7C0F91C
:104A2000824631E02868400702D5E06800288AD035
:104A3000E168286820F0190008432860FEF7B0F903
:104A4000824607E0DFE000BFFEF7AAF9A0EB0A000C
:104A50000228B9D828684007F6D500BFFEF79AF9B2
:104A600040451BD82069402812D0316821F47C31A0
:104A700041EA003030602AE018E000BFFEF790F90C
:104A8000A0EB0A0002289FD828684007F6D5E5E782
:104A9000306820F47C3040F40030EBE7207C316853
:104AA00021F0FE4141EA0060E4E70DE1286820F0D2
:104AB00001002860FEF774F9824605E0FEF770F900
:104AC000A0EB0A0002288DD828684007F6D4207889
:104AD000C0065DD5D9F80000DFF86CB2396800F087
:104AE0003800ABF1040B082810D0182803D101F0CE
:104AF000030001280AD0E0690028286838D040F077
:104B000080002860FEF74CF9824623E02868C00543
:104B100023D5E069802876D11FE0206A202821D0A3
:104B2000316821F0F84141EA8060306030E000BF38
:104B300094F82010DBF8002022F07C5242EA016158
:104B4000CBF8001024E000BFFEF72AF9A0EB0A0022
:104B5000022898D82868C005F6D5FEF71BF940450D
:104B6000E6D8DAE7306820F0F84040F08040DCE733
:104B700020F080002860FEF713F9064605E000BF2C
:104B8000FEF70EF9801B02289DD82868C005F7D4CF
:104B90002078000729D56C48616964300029804677
:104BA000016811D041F001010160FEF7F9F80646F5
:104BB00005E000BFFEF7F4F8801B0228C9D8D8F83A
:104BC00000008007F6D510E021F001010160FEF73A
:104BD000E7F8064605E000BFFEF7E2F8801B022872
:104BE00072D8D8F800008007F6D42078800623D544
:104BF000A0690028286810D040F480502860FEF793
:104C0000CFF8064605E036E1FEF7CAF8801B022819
:104C10005AD828688004F7D50EE020F48050286028
:104C2000FEF7BEF8064604E0FEF7BAF8801B02283D
:104C30004AD828688004F7D4207840074FD5DFF899
:104C40000C81D8F8001041F48071C8F80010FEF70C
:104C5000A7F8064605E000BFFEF7A2F8801B64280F
:104C600032D8D8F80000C005F6D5374EA0686036B7
:104C700001280AD008B1052813D0306820F00100BF
:104C80003060306820F0040002E0306840F001003D
:104C90003060A06841F2883A90B1FEF781F8804612
:104CA0000AE0306840F004003060EEE7FEF778F884
:104CB000A0EB0801514507D830688007F6D50EE013
:104CC000FEF76EF8804607E084E000BFFEF768F864
:104CD000A0EB080151457DD830688007F6D4606AA2
:104CE000B0B3DFF86480D9F8001008F120084FF65F
:104CF000F87B08F10409C1F3C2010329A8F1040AF1
:104D000069D00228286820F08070286003D0FEF760
:104D100047F8044684E0FEF743F8064605E000BF86
:104D2000FEF73EF8801B022877D828688001F7D468
:104D3000E26A40F2F331386854F8283F884340EA89
:104D400002101843386004E010440258004802582A
:104D5000B5E0217B434622894FF4FE0C208A4FF0B8
:104D6000FE474902267D521E401EA1F50071C2F386
:104D700008088AB2761E0CEA004042EA08020243A2
:104D8000504607EA06610A431A60DAF8002022F06A
:104D90000102CAF80020D9F80020266A22EA0B0294
:104DA00042EAC602C9F80020DAF80010A26921F030
:104DB0000C011143CAF800100168E26921F00201F8
:104DC00011430160016841F480310160016841F4E0
:104DD000003101E021E027E00160016841F4802119
:104DE0000160016841F001010160286840F08070B5
:104DF0002860FDF7D5FF044605E000BFFDF7D0FFB2
:104E0000001B022809D828688001F7D557E000BFA9
:104E1000FDF7C6FF001B022802D90320BDE8F09F62
:104E200028688001F4D44AE039680128D8F80000E5
:104E300021D0A26A01F0030393421CD1E26AC1F3BC
:104E400005118A4217D1216BC0F30802491E8A421C
:104E500011D1616BC0F34622491E91420BD1A16B67
:104E6000C0F30642491E914205D1E16BC0F30660D2
:104E7000491E814201D00120D0E7A16C4E46D9F8ED
:104E80000000C0F3CC00814219D0DAF8000055468A
:104E900020F00100CAF80000FDF782FF4FEA00078A
:104EA000FDF77EFFB842FBD0A26C306820EA0B0011
:104EB00040EAC2003060286840F00100286000200D
:104EC000ACE700002DE9F047040029D0594A4FF023
:104ED00000092068584B594D9042C4F8289006D0DC
:104EE000984204D0A84202D0E1680F2918D8E1689E
:104EF0004FF0010AE76B0831C9080AEB57167143F6
:104F0000904205D0984203D0A84201D0082907D882
:104F1000904203D0984201D0A84204D1102902D96E
:104F20000120BDE8F08794F8810020B9204684F87C
:104F3000809000F085F8022084F8810020680168E4
:104F400021F0010101602068A1698268B1F1806FE0
:104F500002F4F81110D16268B2F5800F01D01AB1D5
:104F60000AE0A26B22B107E0A26BB2F1805F03D12D
:104F7000026842F4805202606068400209D5E0682D
:104F8000072806D32068236D026822F480721A4332
:104F900003E02068026822F480720260A66AE06979
:104FA000E26B25683043E3680A4310431843A86066
:104FB000D4E90D02D4E90581636A25691843D4F860
:104FC00020C00A43266810432843A56DD4E9017226
:104FD000D4E9123140EA080040EA0C0038430843A3
:104FE000104318432843F060606868B920688168FE
:104FF00021F4C05141F4006181602068816821F48E
:10500000C06141F4806181602068016D21F001017F
:1050100001656068400206D52068626DC16821F0B4
:1050200000411143C160C4F8849084F881A000203D
:1050300077E700000030014000380040003C0040AD
:1050400010B5B6B00446142130A8FBF7BAFBC02156
:105050006846FBF7B6FB1849206888422AD14114FC
:10506000002019900446CDE900106846FEF754FD73
:1050700008B1FCF7DFF91148016841F40051016003
:10508000006800F4005035900C481038016841F079
:1050900010010160006830AB022100F01000359073
:1050A0006420052283E81300054830A9CDE9334286
:1050B000FDF750FD36B010BD00340140F0440258F9
:1050C000001002587047704770470000F0B590F824
:1050D0003C20012A3BD01F4E012480F83C40022294
:1050E00080F83D2002681C4D5368B242D2F808C0D7
:1050F00001D0AA4203D14F6823F470033B430F68E9
:1051000023F070031F4357600268B24213D0B2F11C
:10511000804F10D0114B9A420DD0114B9A420AD0B9
:10512000104B9A4207D0AA4205D00F4B9A4202D0A8
:105130000E4B9A4204D189682CF080031943916088
:10514000002180F83D4080F83C100846F0BD022068
:10515000F0BD0000000001400004014000040040D8
:1051600000080040000C00400018004000400140D2
:1051700010B5040003D094F83D0010B107E0012001
:1051800010BD002084F83C00204600F023F80220E7
:1051900084F83D002068211D02F03EFB012084F8C8
:1051A000480084F83E0084F83F0084F8400084F80A
:1051B000410084F8420084F8430084F8440084F8F5
:1051C000450084F8460084F8470084F83D0000203C
:1051D00010BD000008B5114A01681148914211D173
:1051E000016841F48031016000680022052100F46B
:1051F000803000907420FEF7D5F8BDE80840742098
:10520000FEF7C3B8074A914207D1016841F4003163
:105210000160006800F40030009008BD00400140CB
:10522000F04402580044014090F83D10012901D09B
:1052300001207047174A022180F83D100168CB68B1
:1052400043F00103CB600068904214D0B0F1804F6E
:1052500011D0114988420ED0104988420BD0104914
:10526000884208D00F49884205D00F49884202D0B1
:105270000E49884207D181680D4A1140062906D09F
:10528000B1F5803F03D0016841F0010101600020C9
:10529000704700000000014000040040000800408A
:1052A000000C004000040140001800400040014094
:1052B0000700010070B5044690F83C000025012865
:1052C00014D03A4B012684F83C60022084F83D005B
:1052D00022689068184020F47F4090600868702829
:1052E0002FD010DC10F00F0F03D022E04FF002009F
:1052F00070BD4FEA2012072A1BD2DFE802F0535399
:1053000053534B394100B0F1101F4BD009DCB0F5BD
:10531000805F0FD0B0F5005F1ED0B0F5801F08D1C0
:1053200040E0A0F5801120393CD010293AD0202946
:1053300038D0012584F83D60002084F83C002846E0
:1053400070BD4A682068D1E9021302F0D8FA2068DB
:10535000816841F0770109E04A682068D1E90213C9
:1053600002F0CDFA2068816841F480418160E1E774
:10537000CA684968206802F06FFC2068502106E086
:10538000CA684968206802F078FC2068602102F051
:10539000BFFACFE7CA684968206802F05DFC206860
:1053A0004021F4E7226801461046F0E788FFCEFF6F
:1053B0002DE9F04104000D4603D094F83D0018B1EA
:1053C00008E00120BDE8F081002084F83C00204680
:1053D00000F04CF8244A022084F83D0020688168DF
:1053E000114081602068211D02F016FA226840F207
:1053F0000336AF6940F60C4C2B684FF2F00EA868EC
:1054000091680B439169B14341EA07210843D5E90B
:10541000031720EA0C00D5E9076C20EA0E00D2F849
:1054200020E03F0140EA062668686D69314347EA9B
:105430000C37936023680F4301219F612EF0AA026D
:1054400042EA051322681843106284F8481084F871
:105450003E1084F83F1084F8441084F8451084F816
:105460003D100020AEE70000F8BFFEFFF0B587B0AA
:10547000044614216846FBF7A4F979490026D4F8BC
:1054800000C0022477481039754B012584451FD18F
:10549000186840F001001860186800F001000590DD
:1054A000086840F0100008600868694600F01000C5
:1054B00005904FF420608DE871006B480495FDF76E
:1054C00049FB002205211920FDF76CFF192057E048
:1054D0006648BCF1804F664A664F22D0DFF898E1FB
:1054E000F44551D1026842F002020260006800F007
:1054F00002000590086840F00200086008686946EC
:1055000000F00200059030208DE8710038460494C8
:10551000FDF720FB002205211D20FDF743FF1D2084
:105520002EE0036843F001030360006800F001000F
:105530000590086840F001000860086800F001006C
:105540000590086840F0020008600868694600F0AD
:10555000020005904FF400408DE87100104604955C
:10556000FDF7F8FA082069468DE871003846049581
:10557000FDF7F0FA002205211C20FDF713FF1C2087
:10558000FDF703FF07B0F0BD3C4FBC451FD10268DB
:1055900042F004020260006800F004000590086810
:1055A00040F0080008600868694600F008000590AF
:1055B0004FF440508DE8710031480494FDF7CAFA69
:1055C000002205211E20FDF7EDFE1E20D8E7DFF8A2
:1055D000B4E00327F4451FD1036843F008030360D8
:1055E000006800F008000590086840F001000860BD
:1055F000086801AB0097694600F0010083E870007D
:10560000CDE904401046FDF7A5FA0022052132201D
:10561000FDF7C8FE3220B3E71B488445B2D11868B5
:1056200040F002001860186800F002000590086859
:1056300040F0040008600868694600F00400059026
:10564000C0208DE851001148CDE90367FDF782FACB
:10565000002205212C20FDF7A5FE2C2090E700005C
:10566000F04402580000014000100258E84402587B
:1056700000000258000402580004004000080040E6
:10568000000C0258000C00400004014000080258C1
:1056900070B504464FF0020094F83E2094F83F5055
:1056A00094F8446094F8453021B104290DD0012AC2
:1056B0001AD113E0012A17D1012E15D184F83E002A
:1056C00084F844000021206820E0012D0CD1012B3A
:1056D0000AD184F83F0084F8450014E0012D03D17D
:1056E000012E01D1012B01D0012070BD84F83E00B4
:1056F00084F83F0084F8440084F8450001222068C3
:10570000002102F0EFF820680122042102F0EAF8FB
:105710002068016841F001010160002070BD704700
:105720002DE9F041044600680027C6680569A9070D
:1057300013D5B10711D5FA1E026101212177206826
:1057400080698007204602D0FFF7E9FF04E000F0FF
:10575000B3F8204600F088F92777680716D5700758
:1057600014D5226802206FF00401116120772068AF
:10577000806910F4407F204602D0FFF7D0FF04E09C
:1057800000F09AF8204600F06FF92777280715D522
:10579000300713D5226804206FF0080111612077CB
:1057A0002068C0698007204602D0FFF7B8FF04E0F8
:1057B00000F082F8204600F057F92777E80616D562
:1057C000F00614D5226808206FF0100111612077CF
:1057D0002068C06910F4407F204602D0FFF79FFF89
:1057E00004E000F069F8204600F03EF92777E8076A
:1057F00008D0F00706D021686FF00100086120464C
:1058000000F0BCF9280601D4A80408D5300606D556
:1058100021686FF4025008612046FFF754FCE80548
:1058200008D5300606D521686FF4807008612046DF
:10583000FFF748FC680608D5700606D521686FF0AA
:1058400040000861204600F0A3F9A8060AD5B0067A
:1058500008D521686FF0200008612046BDE8F041BE
:10586000FFF732BCBDE8F08110B586B004461421C4
:105870006846FAF7A6FF0D492068884214D10C4803
:10588000016841F0020101600068002100F002009F
:105890000590022042030092CDE90101CDE90310F9
:1058A00004486946FDF756F906B010BD00180040DF
:1058B000E044025800040258704770B5044690F85E
:1058C0003C0000260D4601280BD0012084F83C0046
:1058D0000C2A4AD007DC82B1042A20D0082A06D13B
:1058E00031E0022070BD102A53D0142A63D0012663
:1058F000002084F83C00304670BD206802F012F8A9
:105900002068816941F0080181612068816921F086
:105910000401816120682A698169114311E02068CE
:1059200002F052F82068816941F4006181612068C9
:10593000816921F48061816120682969826942EA74
:1059400001218161D4E7206802F08AF82068C169EA
:1059500041F00801C1612068C16921F00401C16101
:1059600020682A69C169114311E0206802F0C4F877
:105970002068C16941F40061C1612068C16921F4F6
:105980008061C16120682969C26942EA0121C1615F
:10599000AEE7206802F0ECF82068416D41F00801A4
:1059A00041652068416D21F00401416520682A6944
:1059B000416D114311E0206802F014F92068416D37
:1059C00041F4006141652068416D21F480614165C9
:1059D00020682969426D42EA0121416588E710B5D6
:1059E000040003D094F83D0010B107E0012010BD81
:1059F000002084F83C00204600F022F8022084F8C1
:105A00003D002068211D01F007FF012084F84800B7
:105A100084F83E0084F83F0084F8400084F8410098
:105A200084F8420084F8430084F8440084F8450078
:105A300084F8460084F8470084F83D00002010BD3B
:105A400008B500680649884208D10648016841F057
:105A500040010160006800F04000009008BD0000B7
:105A600000180040E84402587047000030B5044672
:105A70004FF0020269B1042912D0082917D00C296D
:105A80001CD0102921D094F84300012824D00120F3
:105A900030BD94F83E000128F9D184F83E201DE085
:105AA00094F83F000128F2D184F83F2016E094F8E2
:105AB00040000128EBD184F840200FE094F8410029
:105AC0000128E4D184F8412008E094F8420001283C
:105AD000DDD184F8422001E084F8432001222068CF
